:020000040800F2
:1000000060070020CD010008110B00087D060008E4
:100010000D0B0008190300080B1200080000000077
:100020000000000000000000000000002D0D00088E
:100030001D03000800000000990B0008410E000895
:10004000E7010008E7010008E7010008E7010008F0
:10005000E7010008E7010008E7010008E7010008E0
:10006000E7010008E7010008E7010008E7010008D0
:10007000E7010008E7010008E7010008E7010008C0
:10008000E7010008E7010008E7010008E7010008B0
:10009000E7010008E7010008E7010008E7010008A0
:1000A000E7010008E7010008E7010008E701000890
:1000B000E7010008E7010008E7010008E701000880
:1000C000E7010008E7010008E7010008E701000870
:1000D000E7010008A50E00082D0F0008E701000841
:1000E000E7010008E7010008E7010008E701000850
:1000F000E7010008E7010008E7010008E701000840
:10010000E7010008E7010008E7010008E70100082F
:10011000E7010008E7010008E7010008E70100081F
:10012000E7010008E7010008E7010008E70100080F
:1001300000F002F800F03AF80AA090E8000C8244BF
:100140008344AAF10107DA4501D100F02FF8AFF29C
:10015000090EBAE80F0013F0010F18BFFB1A43F0A5
:1001600001031847E427000004280000103A24BFC8
:1001700078C878C1FAD8520724BF30C830C144BF0C
:1001800004680C607047000000230024002500264E
:10019000103A28BF78C1FBD8520728BF30C148BFEA
:1001A0000B6070471FB51FBD10B510BD00F06EF895
:1001B0001146FFF7F7FF01F087F800F0A0F803B44D
:1001C000FFF7F2FF03BC01F022F800000948804766
:1001D00009480047FEE7FEE7FEE7FEE7FEE7FEE729
:1001E000FEE7FEE7FEE7FEE704480549054A064B41
:1001F00070470000450E0008310100086001002032
:1002000060070020600300206003002070470000AA
:100210000FB4044910B503AA029800F009F810BC05
:100220005DF814FB18000020704770477047704756
:10023000074B70B50D467B4400F011F80446284684
:1002400000F020F810B14FF0FF3070BD204670BDB7
:100250006B10000001694A1C02610878704700B504
:100260008FB0CDE901310021059105497944CDE9EF
:1002700003101146684600F02EF80FB000BD0000D4
:10028000E5FFFFFF007B00F080007047754600F03F
:100290003FF8AE4605006946534620F00700854604
:1002A00018B020B5FFF7A0FFBDE820404FF00006D2
:1002B0004FF000074FF000084FF0000B21F007014E
:1002C000AC46ACE8C009ACE8C009ACE8C009ACE891
:1002D000C0098D4670472DE9F04106460024D6E955
:1002E0000170F5688046304603E04146B847641C1B
:1002F0003046A8470028F8D12046BDE8F08110B567
:100300000446AFF300802046BDE81040FFF757BF1A
:1003100000487047FC00002000BFFEE770472DE951
:10032000F04102460025002600200023002400277B
:1003300091F803C00CF00F0591F803C00CF0100CFD
:10034000BCF1000F03D091F802C04CEA050591F80A
:1003500000C0BCF1000F31D0146800202BE04FF03A
:10036000010C0CFA00F3B1F800C00CEA03069E423F
:1003700020D183004FF00F0C0CFA03F7BC4305FAB1
:1003800003FC4CEA040491F803C0BCF1280F06D129
:100390004FF0010C0CFA00FCC2F814C00AE091F80E
:1003A00003C0BCF1480F05D14FF0010C0CFA00FC62
:1003B000C2F810C0401C0828D1D31460B1F800C0A6
:1003C000BCF1FF0F34DD546800202EE000F1080C72
:1003D0004FF0010808FA0CF3B1F800C00CEA03066C
:1003E0009E4221D183004FF00F0C0CFA03F7BC435F
:1003F00005FA03FC4CEA040491F803C0BCF1280F91
:1004000005D100F1080C08FA0CF8C2F8148091F834
:1004100003C0BCF1480F07D100F1080C4FF00108F0
:1004200008FA0CF8C2F81080401C0828CED354609B
:10043000BDE8F081F0B50A46002300240021002524
:1004400000F00046B6F1004F02D11D4EF16901E007
:100450001B4E7168C0F3034583B200F44016B6F535
:10046000401F08D121F07061154E766826F0706645
:10047000134F7E6012E000F48016B6F5801F06D19F
:10048000032606FA05F4A14341F0706106E0460D2B
:10049000360103FA06F6B14341F0706122B1460D10
:1004A000360103FA06F6314300F00046B6F1004F7C
:1004B00002D1034EF16101E0014E7160F0BD000018
:1004C00000000140016170472DE9F84F074688465A
:1004D00093469A46DDF828900097B3E099F800001B
:1004E00080283DDA99F800600D2E05D1009F08F1B3
:1004F00010001FFA80F830E0202E03DDA6F1200066
:1005000086B200E00026002422E000251CE004EB77
:1005100006105049085C80212941084040B108EB91
:10052000040291B27A1990B25A4600F097F809E0A5
:10053000D34507D008EB040291B27A1990B2524623
:1005400000F08CF8681CC5B2082DE0DB601CC4B25A
:10055000102CDADB07F1080087B209F1010971E01C
:10056000002668E006EB06103B4911F8100099F8E8
:10057000001088425DD106EB0610374901EB4000C0
:10058000407899F80110884253D100244FE00025AB
:1005900020E006EB0610304901EB4000801C10F80B
:1005A000141080202841014041B108EB040291B2AF
:1005B0007A1990B25A4600F051F809E0D34507D0B5
:1005C00008EB040291B27A1990B2524600F046F854
:1005D000681CC5B2082DDCDB002524E006EB061004
:1005E0001D4901EB4000801C012101EB4401405CEE
:1005F00080212941084048B108EB040291B27A19E0
:10060000083290B25A4600F029F80AE0D34508D0E3
:1006100008EB040291B27A19083290B2524600F007
:100620001DF8681CC5B2082DD8DB601CC4B2102CA4
:10063000ADDB701C86B2072E94DB09F1020907F1CD
:10064000100087B299F8000000287FF447AFBDE89A
:10065000F88F000048150008BA22000870B504465B
:100660000D461646681C83B2601C82B2294620469D
:1006700000F0F8F9304600F07BF870BD00BFFEE7EF
:1006800008B50121442000F0A9FA1820ADF80000B7
:1006900048208DF8030069460648FFF740FE012018
:1006A000ADF8000028208DF8030069460248FFF7E6
:1006B00036FE08BD001801400008014008B50121C0
:1006C000084600F08BFA01212448FFF7B3FE012110
:1006D0001C2000F083FA0121242000F07FFA4FF45F
:1006E0001860ADF8000003208DF8020010208DF88E
:1006F000030069461A48FFF712FE4FF4E060ADF8B8
:10070000000003208DF8020010208DF803006946D8
:100710001448FFF704FE0121242000F05FFA4FF493
:100720008070ADF8000010208DF8030003208DF8D4
:10073000020069460C48FFF7F2FD4FF480710A4849
:10074000FFF7C0FE0420ADF8000069460748FFF738
:10075000E6FD04210548FFF7B5FE08BD00023000A4
:10076000000C01400010014000080140001401404D
:1007700010B504464FF48070084908608020091FB6
:100780000860201200F0B4FAE0B200F0B1FA4FF4C1
:1007900080700249091F086010BD0000140C014060
:1007A00008B50121482000F019FA2020ADF800001A
:1007B00010208DF8030003208DF8020069460948D7
:1007C000FFF7ADFD20210748FFF77CFE2020ADF8A4
:1007D000000069460448FFF7A2FD20210248FFF708
:1007E00071FE08BD000C01400018014070B50646BE
:1007F0009F237F220021084600F034F92C2000F0CE
:1008000071F9002408E0002503E03046FFF7B0FF4F
:100810006D1CA02DF9D3641C802CF4D370BD10B5D1
:10082000FFF74CFF00F00CF9112000F05BF9782085
:1008300000F012FDB12000F055F9012000F03EF962
:100840002C2000F03BF92D2000F038F9B22000F008
:1008500049F9012000F032F92C2000F02FF92D2069
:1008600000F02CF9B32000F03DF9012000F026F94A
:100870002C2000F023F92D2000F020F9012000F0B9
:100880001DF92C2000F01AF92D2000F017F9B420E2
:1008900000F028F9072000F011F9C02000F022F93B
:1008A000A22000F00BF9022000F008F9842000F0EB
:1008B00005F9C12000F016F9C52000F0FFF8C220AC
:1008C00000F010F90A2000F0F9F8002000F0F6F826
:1008D000C32000F007F98A2000F0F0F82A2000F089
:1008E000EDF8C42000F0FEF88A2000F0E7F8EE20D2
:1008F00000F0E4F8C52000F0F5F80E2000F0DEF876
:10090000362000F0EFF8C82000F0D8F8E02000F022
:10091000E9F80F2000F0D2F81A2000F0CFF80F20ED
:1009200000F0CCF8182000F0C9F82F2000F0C6F82D
:10093000282000F0C3F8202000F0C0F8222000F0AA
:10094000BDF81F2000F0BAF81B2000F0B7F82320F4
:1009500000F0B4F8372000F0B1F8002000F0AEF855
:10096000072000F0ABF8022000F0A8F8102000F0FB
:10097000A5F8E12000F0B6F80F2000F09FF81B204A
:1009800000F09CF80F2000F099F8172000F096F87E
:10099000332000F093F82C2000F090F8292000F08C
:1009A0008DF82E2000F08AF8302000F087F83020F3
:1009B00000F084F8392000F081F83F2000F07EF844
:1009C000002000F07BF8072000F078F8032000F00A
:1009D00075F8102000F072F82A2000F083F800204B
:1009E00000F06CF8002000F069F8002000F066F8D4
:1009F0007F2000F063F82B2000F074F8002000F056
:100A00005DF8002000F05AF8002000F057F89F2011
:100A100000F054F8F02000F065F8012000F04EF8E6
:100A2000F62000F05FF8002000F048F83A2000F0CF
:100A300059F8052000F042F8292000F053F810BDC5
:100A400010B54FF4806006494861642000F004FC52
:100A50004FF4806002490861322000F0FDFB10BDB8
:100A600000100140F0B504460D4616461F462A20E8
:100A700000F038F8002000F021F8E0B200F01EF895
:100A8000002000F01BF8F0B200F018F82B2000F066
:100A900029F8002000F012F805F12001C8B200F09A
:100AA0000DF8002000F00AF807F12001C8B200F0AC
:100AB00005F82C2000F016F8F0BD000010B5044633
:100AC0004FF48070064908608020091F08602046A6
:100AD00000F00EF94FF480700149091F086010BD45
:100AE000140C014010B504464FF4807006490860AC
:100AF00080200860204600F0FBF84FF48070024927
:100B0000091F086010BD0000140C014000BFFEE783
:100B10007047000070B5002100230F22C47804B391
:100B2000154C246804F4E064C4F5E064210AC1F1C2
:100B30000403CA40447804FA03F184781440214342
:100B400009010E4C0678A155047804F01F05012414
:100B5000AC4005786D11AD0005F1E025C5F8004108
:100B600009E0047804F01F050124AC40044D067828
:100B7000761145F8264070BD0CED00E000E400E081
:100B800080E100E002490143024A11607047000021
:100B90000000FA050CED00E07047000029B1064A9C
:100BA000D2690243044BDA6104E0034AD26982430A
:100BB000014BDA61704700000010024029B1064A7B
:100BC00012690243044B1A6104E0034A126982432A
:100BD000014B1A61704700000010024029B1064A1B
:100BE00092690243044B9A6104E0034A926982438A
:100BF000014B9A61704700000010024029B1064A7B
:100C0000D2680243044BDA6004E0034AD2688243AC
:100C1000014BDA60704700000010024030B500213F
:100C20000022002400232D4D6D6805F00C0121B138
:100C3000042905D0082923D105E0294D056022E0CB
:100C4000274D05601FE0254D6D6805F47012234D9A
:100C50006D6805F48034022505EB92421CB9214DE4
:100C6000554305600BE01D4D6D6805F400351DB161
:100C70001C4D5543056002E0194D5543056002E0E7
:100C8000174D056000BF00BF144D6D6805F0F00101
:100C90000909154D6B5C0568DD4045600F4D6D68B9
:100CA00005F4E061090A104D6B5C4568DD40856024
:100CB0000A4D6D6805F46051C90A0B4D6B5C4568BF
:100CC000DD40C560054D6D6805F44041890B074D59
:100CD0006B5CC568B5FBF3F5056130BD00100240E3
:100CE00000127A0000093D001E0000202E000020A6
:100CF0000021082114E000F0800222B14FF40072BC
:100D0000094B1A6103E04FF40072074B5A614FF42C
:100D10008072054B5A611A614206100E4A1ED1B20A
:100D20000029E8DC7047000000100140704710B552
:100D300000F002F810BD00000CB5002001900090FA
:100D40003348006840F480303149086000BF3048C3
:100D5000006800F4003000900198401C0190009859
:100D600018B90198B0F5A06FF1D12948006800F4D6
:100D7000003010B10120009001E0002000900098A8
:100D8000012843D12348006840F010002149086041
:100D90000846006820F0030008600846006840F03C
:100DA000020008601A4840681949486008464068CF
:100DB00048600846406840F48060486008464068E3
:100DC00020F47C1048600846406840F4E810486011
:100DD0000846006840F08070086000BF0C4800685A
:100DE00000F000700028F9D00948406820F00300A6
:100DF000074948600846406840F00200486000BF6C
:100E00000348406800F00C000828F9D10CBD000030
:100E10000010024000200240042808D14FF0E021D9
:100E2000096941F004014FF0E022116107E04FF041
:100E3000E021096921F004014FF0E02211617047BF
:100E40007047000010B51348006840F001001149D8
:100E5000086008464068104908400E494860084646
:100E600000680E4908400B4908600846006820F4F5
:100E7000802008600846406820F4FE0048604FF477
:100E80001F008860FFF753FF4FF0006004490860BF
:100E900010BD0000001002400000FFF8FFFFF6FE4A
:100EA00008ED00E010B540F225511D4800F0E9F8CA
:100EB00010B31B4800F0A0F9C4B21A48008800F42F
:100EC0000040C8B91748008800F4804060B10A2C7F
:100ED00003D000201349088020E01248008840F425
:100EE00000401049088019E00D2C06D10D480088FB
:100EF00040F480400B49088010E00A480088C0F3A5
:100F00000D0009490C5407480088401C0549088019
:100F100008460088C72801DD0020088010BD0000B9
:100F2000003801401C0000203400002010B540F2C1
:100F300025511D4800F0A5F810B31B4800F05CF9DE
:100F4000C4B21A48008800F40040C8B917480088A5
:100F500000F4804060B10A2C03D0002013490880BF
:100F600020E01248008840F400401049088019E051
:100F70000D2C06D10D48008840F480400B490880B4
:100F800010E00A480088C0F30D0009490C540748D6
:100F90000088401C0549088008460088C72801DDF4
:100FA0000020088010BD0000004400401C0000200C
:100FB0003400002021B1828942F40052828104E091
:100FC00082894DF6FF731A408281704710B504463E
:100FD0002048844209D101218803FFF70FFE002138
:100FE0004FF48040FFF70AFE32E01B48844209D1EB
:100FF00001214804FFF7E2FD00214FF40030FFF724
:10100000DDFD25E01548844209D101218804FFF760
:10101000D5FD00214FF48020FFF7D0FD18E01048E7
:10102000844209D10121C804FFF7C8FD00214FF413
:101030000020FFF7C3FD0BE00A48844208D10121DC
:101040000805FFF7BBFD00214FF48010FFF7B6FD48
:1010500010BD00000038014000440040004800403E
:10106000004C00400050004002460020B1F5007FD7
:1010700000D100BF13880B400BB1012000E000201D
:10108000704770B50246002400230025002040F67A
:101090006A16B14200D100BFC1F3421501F01F032F
:1010A000012606FA03F3012D02D19689334006E0AA
:1010B000022D02D1168A334001E0968A33400C1289
:1010C000012606FA04F41688344013B10CB101204D
:1010D00000E0002070BDF0B5034600240026002586
:1010E000002040F66A17B94200D100BF1846C1F38C
:1010F000421401F01F06012707FA06F5012C01D161
:101100000C3004E0022C01D1103000E014301AB190
:1011100007682F43076002E00768AF430760F0BD30
:101120002DE9F04786B005460E460024A24600BFD2
:10113000A1460027B08900B100BF2F462C8A4CF68B
:10114000FF700440F08804432C82AC894EF6F31003
:101150000440B08831890843718908430443AC8155
:10116000AC8A4FF6FF400440B0890443AC8201A82A
:10117000FFF754FD1F48874202D1DDF810A001E0BF
:10118000DDF80CA0A88900F4004040B10AEBCA00C9
:1011900000EB0A1031684900B0FBF1F807E00AEBF8
:1011A000CA0000EB0A1031688900B0FBF1F8642036
:1011B000B8FBF0F004012009642101FB1089A88923
:1011C00000F4004040B1322000EBC900B0FBF1F068
:1011D00000F00700044308E0322000EB091064210E
:1011E000B0FBF1F000F00F0004432C8106B0BDE825
:1011F000F08700000038014001468888C0F30800ED
:101200007047C1F308028280704700BFFEE700BF4D
:101210007047000010B56FF00400FFF7FDFD0A48AD
:1012200000680A49B0FBF1F00949087008460078E7
:1012300000EB4001C1EBC0104FF6FF7101EAC000A6
:101240000449088010BD00000000002000127A0050
:1012500014000020160000200146114A12884A435B
:101260004FF0E0235A6100229A611A46126942F057
:1012700001021A6100BF4FF0E022106900F0010284
:101280001AB100F48032002AF5D04FF0E022126942
:1012900022F001024FF0E0231A6100229A617047A8
:1012A0001600002070B504460D4600BF40210548D9
:1012B000FFF7DAFE0028F9D0E1B20248FFF7A1FFFC
:1012C000204670BD004400408AB000BFFFF7A2FF77
:1012D0004FF4A060FFF756FC4FF4E13000F090F8B7
:1012E0004FF4E13000F0E0F8FFF75AFAFFF7C8F9E1
:1012F000FFF795FA4FF400602F4908604EF67D70B5
:10130000FFF774FA2DA04EF67D731F224621009040
:101310000020FFF7D9F84EE02B48008800F4004089
:10132000002845D02848057828A0FEF771FF4EF622
:101330007D70FFF75BFA2AA04EF67D731F224621CF
:1013400000900020FFF7C0F800241CE02848015D51
:101350002848FFF756FF2648015D2748FFF751FF51
:101360002348005D02A9085500BF40212148FFF72E
:101370007BFE012805D040211F48FFF775FE01289C
:10138000F3D1601CC4B2AC42E0DB002002A9485596
:1013900002A84EF67D731F225A2100900A20FFF703
:1013A00093F816A0FEF734FF00200749088002E0FA
:1013B0000A20FFF751FFAFE7100C014062756C6522
:1013C00020746573740000001C000020C4FAB7A2EA
:1013D000CBCDB5C4CFFBCFA2CEAA3A0D0A000000F8
:1013E000C4FAB7A2CBCDB5C4CAFDBEDDCEAA0000FB
:1013F0003400002000440040003801400D0A000085
:1014000010B586B0044601214804FFF7C7FB01214F
:101410000420FFF7E3FB2248FFF7D8FD0420ADF8D6
:10142000140003208DF8160018208DF8170005A968
:101430001C48FEF774FF0820ADF8140004208DF856
:10144000170005A91748FEF76AFF01940020ADF8C0
:101450000800ADF80A00ADF80C00ADF810000C2043
:10146000ADF80E0001A90E48FFF75AFE26208DF8B0
:10147000000003208DF801008DF8020001208DF896
:1014800003006846FFF746FB012240F2255104485D
:10149000FFF721FE01210248FFF78CFD06B010BDC9
:1014A000004400400008014010B586B00446012108
:1014B00044F20400FFF792FB4FF40070ADF8140003
:1014C00003208DF8160018208DF8170005A91C4878
:1014D000FEF725FF4FF48060ADF8140004208DF86E
:1014E000170005A91648FEF71AFF25208DF8000001
:1014F00003208DF801008DF8020001208DF8030013
:101500006846FFF707FB01940020ADF80800ADF82E
:101510000A00ADF80C00ADF810000C20ADF80E007C
:1015200001A90848FFF7FCFD012240F225510548BA
:10153000FFF7D1FD01210348FFF73CFD06B010BDC8
:1015400000080140003801400000000000000000D9
:10155000000000000000000000101010101010101B
:10156000101000001010000000006C6C242400001B
:1015700000000100000000000024242424FE48484C
:101580004848FC909090900000103C549290503845
:1015900014121292547810000000225C94A8481093
:1015A00010242A5254880000000030484850206E11
:1015B00054948C888A7400000000303010100000B1
:1015C000000000000000000000040810102020208F
:1015D000202020101008040000804020201010104F
:1015E000101010202040800000000000105438101F
:1015F000385410000000000000000010101010FE11
:10160000101010100000000000000000000000009A
:10161000000000001010200000000000000000FE8C
:1016200000000000000000000000000000000000BA
:101630000000000010100000000004040808101052
:101640002020404080800000000038448282828256
:101650008282828244380000000010701010101046
:1016600010101010107C0000000038448282040822
:101670001020408284FC00000000384482020438BC
:1016800004020282443800000000040C14142424D4
:101690004444FE04040E00000000FC808080B8C4B6
:1016A000820202828478000000003C428280B8C43A
:1016B000828282824438000000007E428204040854
:1016C00008081010101000000000384482824438CE
:1016D0004482828244380000000038448282828240
:1016E000463A02824438000000000000101000005A
:1016F00000001010000000000000000010100000AA
:10170000000000101020000000000000061860809B
:101710006018060000000000000000000000FE004D
:1017200000FE00000000000000000000C0300C02BD
:101730000C30C0000000000000384482820204081F
:10174000101010001010000000003844829AAAAA5D
:10175000AAAAAA9680423C0000001010102828284F
:1017600044447C4444EE00000000FC424242427C7F
:101770004242424242FC000000003C4482808080A1
:1017800080808282443800000000F8444242424295
:101790004242424244F800000000FC444240447C83
:1017A0004440404244FC00000000FC444240447C71
:1017B0004440404040F000000000344C8280808073
:1017C0008E8484844C3400000000EE444444447C05
:1017D0004444444444EE000000007C1010101010FB
:1017E00010101010107C000000003E0808080808C7
:1017F00008080888887000000000EE4448485060DF
:101800005048484444EE00000000E0404040404062
:101810004040404244FC00000000C6446C6C6C54E4
:101820005454444444EE00000000CE4464646454C4
:10183000544C4C4C44E400000000384482828282C4
:1018400082828282443800000000F84442424244CE
:101850007840404040E000000000384482828282AC
:10186000828282BA443C02000000F048444444486A
:101870007048444444E6000000003C44828040300C
:101880000C0202824478000000007C549210101078
:1018900010101010103800000000EE44444444447E
:1018A00044444444443800000000EE444444442886
:1018B00028282810101000000000EE4454545454FE
:1018C00054542828282800000000EE4444282810FA
:1018D0001028284444EE00000000EE444428282844
:1018E000101010101038000000007E44840808100A
:1018F0002020408284FC0000001C101010101010EA
:101900001010101010101C000000EE445454FE542F
:1019100054542828282800000070101010101010AF
:1019200010101010101070000030488400000000EB
:1019300000000000000000000000000000000000A7
:10194000000000000000FE00004020000000000039
:10195000000000000000000000000000000078848B
:10196000047C84848C7600000000C04040405864B1
:101970004242424264580000000000000000384427
:10198000808080804438000000000C040404344C43
:10199000848484844C3600000000000000007884B9
:1019A00084FC808084780000000018242020F82027
:1019B00020202020207000000000000000003A4499
:1019C0004478807C82827C000000C04040405864A3
:1019D0004444444444EE0000000010100000301065
:1019E000101010101038000000001010000030100F
:1019F00010101010109060000000C04040405C4883
:101A00005060504844EE00000000301010101011DB
:101A10001010101010390000000000000000ACD2BF
:101A20009292929292D6000000000000000058E4CA
:101A30004444444444EE00000000000000003844E8
:101A40008282828244380000000000000000D864D6
:101A5000424242645840E000000000000000364C62
:101A60008484844C34040E000000000000006C30BC
:101A70002020202020700000000000000000788856
:101A80008460188444780000000000202020F820A2
:101A90002020202024180000000000000000C64282
:101AA00042424242463A0000000000000000EE447C
:101AB0004428282810100000000000000000EE4418
:101AC0004454542828280000000000000000EE4480
:101AD0002810102844EE0000000000000000EE4432
:101AE0004428281010A0C0000000000000007E4420
:101AF0008810204284FC0000000C101010101060B0
:101B00001010101010100C000010101010101010F9
:101B1000101010101010100000C0202020202018DD
:101B2000202020202020C0000000000000000072C3
:101B30008C000000000000000000000000001FE01A
:101B400000003FF000003FF000001FE000018006B1
:101B50000003C00F0003C00F0003C00F0003C00F3D
:101B60000003C00F0003C00F0003C00F0003C00F2D
:101B7000000300030000000000000000000000005F
:101B8000000300030003C00F0003C00F0003C00FD9
:101B90000003C00F0003C00F0003C00F0003C00FFD
:101BA0000003C00F0001800600001FE000003FF0AE
:101BB00000003FF000001FE00000000000000000F7
:101BC000000000800000018000000380000007800A
:101BD00000000780000007800000078000000780E9
:101BE00000000780000007800000078000000780D9
:101BF0000000018000000000000000000000000064
:101C000000000180000007800000078000000780BE
:101C100000000780000007800000078000000780A8
:101C200000000780000007800000038000000180A2
:101C300000000080000000000000000000001FE025
:101C400000003FF00000FFF00001FFE00000000690
:101C50000000000F0000000F0000000F0000000F48
:101C60000000000F0000000F0000000F0000000F38
:101C700000001FE300007FF800007FF800001FE075
:101C8000000300000003C0000003C0000003C00008
:101C90000003C0000003C0000003C0000003C00038
:101CA0000003C0000001800000001FF000003FF8AA
:101CB00000003FFC00001FFE000000000003FF804A
:101CC0000001FFC00000FFC000007F80000000187E
:101CD0000000003C0000003C0000003C0000003C14
:101CE0000000003C0000003C0000003C0000003C04
:101CF00000007F8C0001FFE00001FFF000007F800A
:101D00000000000C0000003C0000003C0000003C13
:101D10000000003C0000003C0000003C0000003CD3
:101D20000000003C0000001800007F800000FFC0A1
:101D30000001FFC00003FF80000000000000000061
:101D40000002000100030003000380070003C00F2E
:101D50000003C00F0003C00F0003C00F0003C00F3B
:101D60000003C00F0003C00F0003C00F0003C00F2B
:101D700000031FE300007FF800007FFC00001FE06D
:101D8000000000030000000F0000000F0000000F23
:101D90000000000F0000000F0000000F0000000F07
:101DA0000000000F0000000F00000007000000030B
:101DB00000000001000000000000000000001FFC07
:101DC00000003FF800003FF000001FE0000180002D
:101DD0000003C0000003C0000003C0000003C000F7
:101DE0000003C0000003C0000003C0000003C000E7
:101DF00000031FE000007FF800007FF800001FE0F4
:101E0000000000030000000F0000000F0000000FA2
:101E10000000000F0000000F0000000F0000000F86
:101E20000000000F0000000600003FE000007FF00F
:101E30000000FFF00001FFE00000000000001FFCB8
:101E400000003FF800003FF000001FE000018000AC
:101E50000003C0000003C0000003C0000003C00076
:101E60000003C0000003C0000003C0000003C00066
:101E700000031FE000007FF800007FFC00001FE06F
:101E8000000300030003C00F0003C00F0003C00FD6
:101E90000003C00F0003C00F0003C00F0003C00FFA
:101EA0000003C00F0001800600001FE000003FF0AB
:101EB00000003FF000001FE0000000000007FFE00E
:101EC0000003FFC00001FF880000FF180000003879
:101ED0000000007800000078000000780000007822
:101EE0000000007800000078000000780000007812
:101EF00000000018000000000000000000000000CA
:101F00000000001800000078000000780000007851
:101F100000000078000000780000007800000078E1
:101F20000000007800000078000000380000001871
:101F300000000008000000000000000000001FE09A
:101F400000003FF000003FF000001FE000018006AD
:101F50000003C00F0003C00F0003C00F0003C00F39
:101F60000003C00F0003C00F0003C00F0003C00F29
:101F700000031FE300007FF800007FFC00001FE06B
:101F8000000300030003C00F0003C00F0003C00FD5
:101F90000003C00F0003C00F0003C00F0003C00FF9
:101FA0000003C00F0001800600001FE000003FF0AA
:101FB00000003FF000001FE00000000000001FE0F4
:101FC00000003FF000003FF000001FE0000180062D
:101FD0000003C00F0003C00F0003C00F0003C00FB9
:101FE0000003C00F0003C00F0003C00F0003C00FA9
:101FF00000031FE300007FF800007FFC00001FE0EB
:10200000000000030000000F0000000F0000000FA0
:102010000000000F0000000F0000000F0000000F84
:102020000000000F0000000600001FE000003FF06D
:1020300000007FF00000FFE0000000000000000052
:102040000000000000000000000000000000000090
:102050000000000000000000000000000000000080
:102060000000000000000000000000000000000070
:102070000000000000000000000000000000000060
:1020800000000000000000000000000000007800D8
:102090000000780000007800000078000000780060
:1020A00000007800000000000000000000000000B8
:1020B0000000000000000000000000000000000020
:1020C0000000000000000000000000000000000010
:1020D00000000000000000000000070000000F806A
:1020E00000000F8000000F800000070000000000CB
:1020F00000000000000000000000000000000000E0
:10210000000000000000070000000F8000000F80AA
:1021100000000F8000000700000000000000000029
:1021200000000000000000000000000000000000AF
:10213000000000000000000000000000000000009F
:1021400000000000000000000007C006000FE006CD
:102150000000000C0030181800301818003018303B
:102160000030183000301860003008C00007C0C0D0
:10217000000FE080000000000000000FE0000607F4
:10218000C000063018000C3018000C301800183051
:102190001800303018003030180060000000C00F08
:1021A000E000C007C00000000000000000000000C8
:1021B000000000000000000000000000000000001F
:1021C000000000000000000000000000000000000F
:1021D000000700E0000887FC00088E030008980153
:1021E0008007180080003000000030000000700000
:1021F000000060000000600000006000000060005F
:10220000000060000000700000003000000030009E
:10221000000038000000180100000C03000007FC5B
:10222000000001F0000000000000000000000000BD
:10223000000000000000000000000000000000009E
:10224000000000000000000000000000000000008E
:10225000000000000000000000000000000000007E
:10226000000000000000000000000000000000006E
:102270000000000000003FF000007FF000007FE061
:102280000000FFC00000000000000000000000008F
:10229000000000000000000000000000000000003E
:1022A000000000000000000000000000000000002E
:1022B00000000000000000000000C4FA090009004E
:1022C00011FC3204544899501148124414441140EE
:1022D000108002005104511290120FF0B7A20100B9
:1022E0001110110822003FFC0200040007F80A0840
:1022F0000908111010A0204040A003181C06CBCDE7
:1023000002082108111017FC00400040F04017FEA1
:10231000104010A0109011081208280047FE00007D
:10232000B5C41040104020407E7C42844284430467
:1023300042447E2442244204420442047E04422851
:102340000010CAFD082049202A20083EFF442A44E4
:10235000494488A41028FE28221042106428182816
:102360003444C282BEDD200023FC22042204FBFC94
:10237000222022202BFE3220E22022FC22842284F2
:102380002484A4FC4884CEAA01002100110011007D
:1023900001007FF80208020802880448044808087F
:1023A00010082008405080200000000000000000BD
:1023B000000000000000000000000000000000001D
:1023C00000000000000000000000B4BF000000009A
:1023D0000000020100063FC00C3FE018030010029D
:1023E000003336603726203E66301C643018642087
:1023F00031FEE03F1FC01C0C00000C000704003E33
:1024000007F00001C0000000000000000000000014
:1024100000000000C9AB00000000000001FE000346
:10242000E3000703000C03001C3F003BFFC03F30EC
:10243000600C30200C30200C10200C10600FFFC0FE
:10244000083F000800000800600E3FE007FC0000A5
:102450000000000000000000000000000000CCEEC2
:1024600000000000000000030000FFE00C07F00C7B
:1024700006000CFF803FF0E01FC0600CFE300CCC6B
:102480003004F83004FF2004C0201FFE603EC0600E
:1024900001FFF001FFF0006060004000000000005C
:1024A0000000000000000000B3E400000000000095
:1024B00000200000300007FFF03FFFE003000006AF
:1024C00001800C01800801C01807E00FFE7007E0D2
:1024D000000206000604000404000404000C067058
:1024E0000C07E000000000000000000000000000F9
:1024F0000000B2E200000000000000003039FC30B3
:102500001FCC300706B00F06F01907B03137B031D5
:1025100036F01F27F00167F001E5F001E1F000411E
:10252000F00CF8B03CD830008C3000803000000057
:10253000000000000000000000000000CAD40000FD
:10254000000000000803600C03700C0330003FE043
:10255000003F800801003C0180047F80047D800CE6
:1025600000800C10C00C10C00C18400C1C600F7EBA
:102570006006703000003000000000000000000025
:10258000000000000000CEC400000000C00000E019
:102590000000700001FFE01FFFC0180100000300F1
:1025A000000600000E00001C000E1800073000019D
:1025B000E00000F00000FC00018F000303C00201F6
:1025C000E00000000000000000000000000000002B
:1025D000D7D6000000000000002000003F0031FFBF
:1025E000E03FC02038003030FE2033C660100200CB
:1025F000000C00001800001800000C0007FFE03F6E
:10260000FFE0000400000C00000C000000000000CF
:1026100000000000000000000000CFD40000000017
:10262000000007FF000F03C00C00401FF8601800F7
:10263000600800400E01C007FF0000000001840098
:102640000184001987800F8CE0078C2000CC0003E8
:10265000FFE01FFFC00000000000000000000000BD
:1026600000000000CABE0000000000000E00001FB5
:10267000FFC0007FE000000000000000000000003C
:1026800000003FC03FFFE00030000030000030009D
:102690000613000C13C00C18F018180018180000CE
:1026A0000000000000000000000000000000CDBCA1
:1026B00000000000000007FF000F03801CC0C019CD
:1026C000FC6011C66033062033E63036FF30301F21
:1026D000F030703030FC30339F3036002010E06036
:1026E000187C400E01C003FF00003800000000000D
:1026F0000000000000000000C6AC00000000000068
:10270000081800180800180800180800180C201FE6
:10271000FFF01FF80018000010000010F8001FFE66
:10272000001E03001003001003001003001003003C
:10273000180200000000000000000000000000007F
:102740000000CFD400000000000007FF000F03C00E
:102750000C00401FF8601800600800400E01C00720
:10276000FF000000000184000184001987800F8CA5
:10277000E0078C2000CC0003FFE01FFFC00000003A
:10278000000000000000000000000000CABE0000C1
:10279000000000000E00001FFFC0007FE0000000EE
:1027A000000000000000000000003FC03FFFE0000C
:1027B00030000030000030000613000C13C00C186D
:1027C000F0181800181800000000000000000000B9
:1027D000000000000000B4A5000000000000060199
:1027E000800FC1801E6180304FC020CFE0078D3048
:1027F0003FC9303379303379303FFB3037FF2032F7
:1028000067E03FE3803FE3C03263603267F0304F00
:10281000B000000000000000000000000000000008
:10282000C3FE0000000000000030C000FFF00C7983
:10283000C00C1F800C7FE03FE0600CC0300CFC300F
:1028400004C03007C0301E60603C3FC0041C000460
:102850007FE000FFE00030C000606000000000008A
:1028600000000000000000000000CAE400000000BA
:1028700000000C03800C0FC0081C703F70001F9FED
:10288000C0101FC0100000367C3017E6301FE3B0C8
:10289000067FB00277F007E3F03F7FF01336F003D6
:1028A0002630032630000000000000000000000079
:1028B00000000000C8EB000000000000060000035C
:1028C000800001C00000E00000700000780000CC33
:1028D0000000C6000183000301800700C00600E07D
:1028E0000C007018003018000030000000000000DC
:1028F00000000000000000000000000000000000D8
:1029000000000000000000000000000000000000C7
:1029100000000000000000000000000000000000B7
:1029200000000000000000000000000000000000A7
:102930000000000000000000000000000000000097
:1029400000000000000000006829000800000020CE
:10295000340000006C0100089C29000834000020AD
:102960002C0700008801000800A24A0400000000B3
:10297000000000000102030406070809000000002F
:10298000000000000000000000000102030401023A
:0C29900003040607080902040608000002
:04000005080001CD21
:00000001FF
